:100000000C9474050C949C050C949C050C949C0514
:100010000C949C050C949C050C949C050C949C05DC
:100020000C949C050C949C050C949C050C949C05CC
:100030000C949C050C949C050C949C050C949C05BC
:100040000C9426170C949C050C94F4160C94CE1664
:100050000C949C050C949C050C949C050C949C059C
:100060000C9470170C949C0508000000BE92244963
:10007000123EABAAAA2ABECDCCCC4C3E00000080DA
:10008000BEABAAAAAA3E00000000BF000000803F4D
:100090000000000000084178D3BB4387D1133D190D
:1000A0000E3CC3BD4282AD2B3E68EC8276BED98F3A
:1000B000E1A93E4C80EFFFBE01C4FF7F3F0000007E
:1000C0000000000103070F1F3F7F0080C0E0F0F831
:1000D000FCFE00000000003E5B4F5B3E3E6B4F6B42
:1000E0003E1C3E7C3E1C183C7E3C181C577D571C19
:1000F0001C5E7F5E1C00183C1800FFE7C3E7FF0092
:1001000018241800FFE7DBE7FF30483A060E2629DF
:10011000792926407F050507407F05253F5A3CE7A2
:100120003C5A7F3E1C1C08081C1C3E7F14227F2268
:10013000145F5F005F5F06097F017F006689956A33
:10014000606060606094A2FFA29408047E040810BE
:10015000207E201008082A1C08081C2A08081E10E7
:100160001010100C1E0C1E0C30383E3830060E3E9F
:100170000E06000000000000005F000000070007FE
:1001800000147F147F14242A7F2A12231308646228
:1001900036495620500008070300001C2241000089
:1001A00041221C002A1C7F1C2A08083E08080080E7
:1001B000703000080808080800006060002010087F
:1001C00004023E5149453E00427F40007249494980
:1001D000462141494D331814127F102745454539B2
:1001E0003C4A4949314121110907364949493646B6
:1001F0004949291E00001400000040340000000896
:100200001422411414141414004122140802015938
:1002100009063E415D594E7C1211127C7F494949C5
:10022000363E414141227F4141413E7F494949415A
:100230007F090909013E414151737F0808087F0089
:10024000417F41002040413F017F081422417F400F
:100250004040407F021C027F7F0408107F3E4141E6
:10026000413E7F090909063E4151215E7F09192956
:1002700046264949493203017F01033F4040403F40
:100280001F2040201F3F4038403F63140814630381
:10029000047804036159494D43007F414141020400
:1002A000081020004141417F040201020440404007
:1002B0004040000307080020545478407F284444FD
:1002C000383844444428384444287F385454541817
:1002D00000087E090218A4A49C787F080404780012
:1002E000447D40002040403D007F102844000041F4
:1002F0007F40007C047804787C0804047838444407
:100300004438FC1824241818242418FC7C080404FD
:1003100008485454542404043F44243C4040207C66
:100320001C2040201C3C4030403C44281028444CB9
:100330009090907C4464544C440008364100000086
:10034000770000004136080002010204023C262327
:10035000263C1EA1A161123A4040207A38545455DF
:1003600059215555794122545478422155547840A9
:1003700020545579400C1E52721239555555593931
:100380005454545939555454580000457C41000286
:10039000457D420001457C407D1211127DF02825EB
:1003A00028F07C545545002054547C547C0A097F25
:1003B0004932494949323A4444443A324A48483039
:1003C0003A4141217A3A42402078009DA0A07D3DEB
:1003D0004242423D3D4040403D3C24FF2424487E73
:1003E0004943662B2FFC2F2BFF0929F620C0887E5E
:1003F000090320545479410000447D413048484A63
:1004000032384040227A007A0A0A727D0D19317D15
:100410002629292F28262929292630484D402038E9
:100420000808080808080808382F10C8ACBA2F10A8
:100430002834FA00007B000008142A142222142A0F
:1004400014085500550055AA55AA55AAFF55FF5541
:10045000FF000000FF00101010FF00141414FF0034
:100460001010FF00FF1010F010F0141414FC001412
:1004700014F700FF0000FF00FF1414F404FC141430
:1004800017101F10101F101F1414141F001010102D
:10049000F0000000001F101010101F10101010F0BE
:1004A00010000000FF101010101010101010FF109E
:1004B000000000FF140000FF00FF00001F101700E5
:1004C00000FC04F414141710171414F404F40000BE
:1004D000FF00F714141414141414F700F714141470
:1004E000171410101F101F141414F4141010F0100F
:1004F000F000001F101F0000001F14000000FC147B
:100500000000F010F01010FF10FF141414FF14106E
:1005100010101F00000000F010FFFFFFFFFFF0F0C1
:10052000F0F0F0FFFFFF0000000000FFFF0F0F0FD3
:100530000F0F3844443844FC4A4A4A347E020206CB
:1005400006027E027E0263554941633844443C04FE
:10055000407E201E2006027E020299A5E7A5991C76
:100560002A492A1C4C7201724C304A4D4D30304899
:10057000784830BC625A463D3E494949007E0101F7
:10058000017E2A2A2A2A2A44445F444440514A448C
:100590004040444A51400000FF0103E080FF00005A
:1005A00008086B6B083612362436060F090F060052
:1005B0000018180000001010003040FF0101001F5B
:1005C00001011E00191D1712003C3C3C3C000000BC
:1005D00000000000000023002600290000000008A1
:1005E00000020100000304070000000000000000FA
:1005F00000000000240027002A00DB40A4A62EAF44
:100600002000A1C8D300408DAED580A80102040807
:10061000102040800102040810200102040810206C
:1006200000000000250028002B000404040404043A
:100630000404020202020202030303030303000094
:10064000600000000000000000000000000000E06A
:100650000000000000000000000000000001E000B9
:1006600000000000000000000000000001F0000099
:10067000000000000000000000000003F000000087
:100680000000000000000000000007F00000000073
:1006900000000000000000000007F800000000005B
:1006A00000000000000000000FF800000003C00080
:1006B0007E000001E0007F0FF800000003C000FE94
:1006C000000001E000FFEFF800000003C000FE00A2
:1006D0000001E000FFFFF800000003C000F0000090
:1006E000000F007FFE7FC0000003C000F00000008C
:1006F0000F003FFE7FF83FF1FBCFFCFEF3BC3DEF68
:10070000E01FFE7FFF7FFBFFDFFEFEFFBC3DEFE053
:100710001FC6FFFF7FFBFFDFFEFEFFBC3DEFE00FCC
:10072000E3C7FE787BC3DE1EF0FFBC3DEF0007FF92
:1007300087FC787BC3DE1EF0F83C3DEF0001FFFF35
:10074000F0007BC3C01EF0F03C3DEF0001F37FE002
:100750003FFBC3CFFEF0F03C3DEF0003E33F807F63
:10076000FBC3DFFEF0F03C3DEF0007E73C00787B89
:10077000C3DE1EF0F03C3DEF0007FFBE00787BC3F8
:10078000DE1EF0F03C3DEF0007FFFE00787BC3DE8D
:100790001EF0F03C3DEF000FFFFE007FFBFFDFFE91
:1007A000F0F03FFDEFE00FFFFF007FFBFFDFFEF00B
:1007B000F03FFDEFE00FF9FF003E79F9CF9EF0F03A
:1007C0001F3DE7E01FF1FF000000000000000000F7
:1007D0000000001F80FF007FFFFFFFFFFFFFFFFF04
:1007E000FFE01C007F007FFFFFFFFEB46D888D18C7
:1007F000E000001F007FFFFFFFFE95AD7DB577E0B5
:1008000000000F007FFFFFFFFEA5AD9D8D19E000EA
:100810000006007FFFFFFFFEB5ADEDB57EE00000F6
:1008200000000001800000000000000000000380C4
:1008300000000000000000000007C00000000000F1
:100840000000000007C00000000000000000000FD2
:10085000C00000000000000000001FE000000000D9
:1008600000000000001FE000000000000000000089
:100870003FE00000000000000000003FF00000002A
:100880000000000000007FF0000000000000001FDA
:10089000F87FF0000000000000003FFE7FF0000045
:1008A00000000000003FFF7FF0000000000000009B
:1008B0001FFFFBE0000000000000000FFFF9FFC079
:1008C0000000000000000FFFF9FFF800000000002A
:1008D0000007FFF1FFFF00000000000003FC73FFB2
:1008E000FF80000000000001FE3FFFFF80000000CD
:1008F000000000FF1E0FFF000000000000007FFE50
:100900001FFC000000000000003FFFFFF800000097
:10091000000000000FDFFFE0000000000000001FEB
:1009200019FFC0000000000000003F3CFF00000075
:1009300000000000007E7CF80000000000000000C5
:100940007FFE7C0000000000000000FFFFFC0000B4
:10095000000000000000FFFFFE000000000000009B
:1009600000FFFFFE0000000000000001FFEFFE009E
:1009700000000000000001FFCFFE000000000000AA
:100980000003FF07FE0000000000000003FC07FE5C
:100990000000000000000003F003FE000000000063
:1009A0000000018000FE00000000000000000000C8
:1009B0007E000000000000000000003E000000007B
:1009C0000000000000000C00000000000007800094
:1009D000FC000003C0000000078001FC000003C011
:1009E000000000078001FC000003C0000000078039
:1009F00001E00000001E000000078001E000000090
:100A00001E007FE3F79FF9FDE7787BDFC0FFF7FF6C
:100A1000BFFDFDFF787BDFC0FFF7FFBFFDFDFF7867
:100A20007BDFC0F0F787BC3DE1FF787BDE00F0F7AD
:100A300087BC3DE1F0787BDE0000F787803DE1E098
:100A4000787BDE007FF7879FFDE1E0787BDE00FFAB
:100A5000F787BFFDE1E0787BDE00F0F787BC3DE182
:100A6000E0787BDE00F0F787BC3DE1E0787BDE00DC
:100A7000F0F787BC3DE1E0787BDE00FFF7FFBFFDCC
:100A8000E1E07FFBDFC0FFF7FFBFFDE1E07FFBDFC1
:100A9000C07CF3F39F3DE1E03E7BCFC0000000004F
:100AA00000000000000000FFFFFFFFFFFFFFFFFF4F
:100AB000FFC0FFFFFFFFFD68DB111A31C0FFFFFF22
:100AC000FFFD2B5AFB6AEFC0FFFFFFFFFD4B5B3BB7
:100AD0001A33C0FFFFFFFFFD6B5BDB6AFDC0220026
:100AE000FF2100008F18F31E11241FBECFEFD8E0A6
:100AF000DEBFCDBF11E0A0E0B1E0E2E5F6E402C068
:100B000005900D92A03EB107D9F723E0A0EEB1E029
:100B100001C01D92A93AB207E1F715E0C3E7D5E09D
:100B200004C02197FE010E94E521C237D107C9F711
:100B30000E9412190C941C230C940000ECEBF2E0C0
:100B4000A089B18982E08C93A485B5851C92A68585
:100B5000B7858FEC8C93108EA489B58986E08C9331
:100B6000A289B3898C9180618C93A289B3898C917D
:100B700088608C93A289B3898C9180688C93028859
:100B8000F389E02D80818F7D8083089508950895F5
:100B90000895DC01ED91FC910190F081E02D099424
:100BA000AF92BF92CF92DF92EF92FF920F931F937B
:100BB000CF93DF936C017B018B01040F151FEB01B9
:100BC0005E01AE18BF08C017D10759F06991D60170
:100BD000ED91FC910190F081E02DC6010995892BE2
:100BE00079F7C501DF91CF911F910F91FF90EF90A1
:100BF000DF90CF90BF90AF900895FC01538D448D4E
:100C0000252F30E0842F90E0821B930B541710F0B7
:100C1000CF96089501970895FC01918D828D9817C4
:100C200061F0A28DAE0FBF2FB11D5D968C91928D9C
:100C30009F5F9F73928F90E008958FEF9FEF0895CD
:100C4000FC01918D828D981731F0828DE80FF11D96
:100C5000858D90E008958FEF9FEF0895FC01918DB1
:100C6000228D892F90E0805C9F4F821B91098F73AA
:100C7000992708958CEB92E00E942E0621E0892BA3
:100C800009F420E0822F089580E090E0892B29F07C
:100C90000E943A0681110C9400000895FC01A48D75
:100CA000A80FB92FB11DA35ABF4F2C91848D90E08E
:100CB00001968F739927848FA689B7892C93A08971
:100CC000B1898C91837080648C93938D848D9813FB
:100CD00006C00288F389E02D80818F7D808308958E
:100CE000EF92FF920F931F93CF93DF93EC0181E07C
:100CF000888F9B8D8C8D98131AC0E889F989808123
:100D000085FF15C09FB7F894EE89FF896083E88955
:100D1000F98980818370806480839FBF81E090E047
:100D2000DF91CF911F910F91FF90EF900895F62ED4
:100D30000B8D10E00F5F1F4F0F731127E02E8C8D6E
:100D40008E110CC00FB607FCFACFE889F9898081B3
:100D500085FFF5CFCE010E944E06F1CFEB8DEC0F53
:100D6000FD2FF11DE35AFF4FF0829FB7F8940B8FD0
:100D7000EA89FB8980818062CFCFCF93DF93EC013A
:100D8000888D8823B9F0AA89BB89E889F9898C9173
:100D900085FD03C0808186FD0DC00FB607FCF7CF2F
:100DA0008C9185FFF2CF808185FFEDCFCE010E942F
:100DB0004E06E9CFDF91CF910895833081F028F47A
:100DC000813099F08230A9F008958730A9F08830F9
:100DD000C9F08430B1F4809180008F7D03C0809190
:100DE00080008F7780938000089584B58F7784BDCD
:100DF000089584B58F7DFBCF8091B0008F7780936D
:100E0000B00008958091B0008F7DF9CFCF93DF932C
:100E1000282F30E0F901E452FA4F8491F901E45FA0
:100E2000F94FD491F901E65DF94FC491CC23A1F0BB
:100E300081110E94DD06EC2FF0E0EE0FFF1FEE5255
:100E4000FA4FA591B491EC91ED2381E090E009F483
:100E500080E0DF91CF91089580E090E0FACF1F937A
:100E6000CF93DF93282F30E0F901E452FA4F8491B9
:100E7000F901E45FF94FD491F901E65DF94FC491AE
:100E8000CC23A9F0162F81110E94DD06EC2FF0E093
:100E9000EE0FFF1FE05EF94FA591B4918FB7F89464
:100EA000EC91111108C0D095DE23DC938FBFDF9148
:100EB000CF911F910895DE2BF8CFCF93DF9390E071
:100EC000FC01E45FF94F2491865D994FFC01849108
:100ED0008823D1F090E0880F991FFC01E051FA4F70
:100EE000A591B491FC01E05EF94FC591D4916230B7
:100EF00071F49FB7F8943C91822F809583238C9353
:100F0000E8812E2B28839FBFDF91CF9108958FB763
:100F1000F894EC912E2B2C938FBFF6CF3FB7F8941B
:100F20008091910290919202A0919302B0919402CB
:100F300026B5A89B05C02F3F19F00196A11DB11D34
:100F40003FBFBA2FA92F982F8827BC01CD01620F70
:100F5000711D811D911D42E0660F771F881F991F2B
:100F60004A95D1F708958F929F92AF92BF92CF92F8
:100F7000DF92EF92FF924B015C010E948E076B01A2
:100F80007C010E948E076C197D098E099F09683EBD
:100F9000734081059105A8F321E0821A9108A10808
:100FA000B10888EEC80E83E0D81EE11CF11C811444
:100FB0009104A104B10429F7FF90EF90DF90CF9046
:100FC000BF90AF909F908F90089520914602260F7A
:100FD0003327331F21323105ECF420916A02FC01E2
:100FE00090E080E0243069F082E00895A09146020C
:100FF0002191AC014A5D5D4FA40FB52FB11D2C931B
:101000000196861798F380914602680F6093460216
:1010100080E0089581E0089510926A0281E0809353
:101020006C0210926B0261E082E10E942F0761E086
:1010300083E10E942F07E9EBF0E080818E7F8083BF
:1010400080818D7F808388E48093B80085E48093DD
:10105000BC000895CF93DF9391E0909325028823FD
:10106000B9F0C091B800D091BA008091BC008A7BE1
:101070008093BC0060E082E10E942F0760E083E182
:101080000E942F070E940C08D093BA00C093B800AA
:10109000DF91CF910895E0919B0280919A02E81729
:1010A00030F4F0E0E050FE4F808190E008958FEF43
:1010B0009FEF089590919B0280919A022FEF3FEF4E
:1010C000981748F4E92FF0E0E050FE4F208130E01F
:1010D0009F5F90939B02C901089580919A0290911D
:1010E0009B02891B990B0895CF92DF92EF92FF929A
:1010F0000F931F93CF93DF937C01CB018A01209143
:10110000BB02222389F0EB016B01C40ED51ECC1566
:10111000DD0569F06991D701ED91FC910190F081B5
:10112000E02DC7010995F3CF642F0E94E507C801A0
:10113000DF91CF911F910F91FF90EF90DF90CF90B3
:101140000895CF93DF931F92CDB7DEB769832091C7
:10115000BB022223F9F02091B802203258F021E09E
:1011600030E0FC013383228390E080E00F90DF9138
:10117000CF9108958091B902E82FF0E0E052FE4F40
:10118000998190838F5F8093B9028093B80281E048
:1011900090E0ECCF61E0CE0101960E94E507F7CF29
:1011A000CF92DF92EF92FF920F931F93CF93DF9333
:1011B000D091B80281E0D13208F09CC0C091BA024F
:1011C0000E948E076B017C0180916A0281116CC0C4
:1011D00082E080936A0281E080936C028FEF8093BB
:1011E000690210928E02D0938D02A0EEB1E0EDE67E
:1011F000F2E080E0D8138DC010928F0280918F02B0
:10120000CC0FC82BC0938F0280916B02813009F004
:1012100084C010926B020E948E076B017C0180914A
:101220008F028093BB008091210290912202A091B5
:101230002302B0912402892B8A2B8B2BA1F00E94D0
:101240008E070091210210912202209123023091F9
:1012500024026C197D098E099F09061717072807B4
:10126000390708F442C08091BC0083FDD8CF85ECDB
:101270008093BC000E948E076B017C0180916A0202
:10128000823009F44CC0809169028F3F09F469C033
:1012900080916902803209F466C0809169028033CE
:1012A00009F463C084E026C080912102909122025B
:1012B000A0912302B0912402892B8A2B8B2B09F455
:1012C00083CF0E948E07009121021091220220916B
:1012D0002302309124026C197D098E099F0906179B
:1012E00017072807390708F06FCF809120020E9466
:1012F0002A0885E01092B9021092B8021092BB023F
:10130000DF91CF911F910F91FF90EF90DF90CF90E1
:1013100008959D9191938F5F6DCF85EEA9CF8091B8
:10132000210290912202A0912302B0912402892BE4
:101330008A2B8B2B09F4A2CF0E948E0700912102E9
:101340001091220220912302309124026C197D0910
:101350008E099F09061717072807390708F08ECF4F
:10136000C4CF80E0C7CF82E0C5CF83E0C3CF08956C
:10137000FC016370668B84819581268137816130A1
:1013800039F0633029F09187808733872287089569
:10139000318720879387828708952F923F924F92BB
:1013A0005F926F927F928F929F92AF92BF92CF92F5
:1013B000DF92EF92FF920F931F93CF93DF93CDB7FE
:1013C000DEB76A970FB6F894DEBF0FBECDBF9A8F17
:1013D000898F7A8369834A01D22E18870F83370158
:1013E000BC2CDC0159962D913C915A972115310561
:1013F00009F015C118968D919C9119976817790776
:101400000CF0D7C11A968D919C91481759070CF092
:10141000D0C14C2C512CB6E0CB9E600D711D112417
:101420007C876B87161617060CF0C3C1EA2DF0E017
:10143000FA87E98793E0EE0FFF1F9A95E1F7F88BA3
:10144000EF87CF01840F951F181619060CF0B1C154
:10145000A98DBA8D58968C91811104C0BFEABD1533
:1014600008F4D394A98DBA8DED91FC911197028463
:10147000F385E02DCD010995B5E0DB9EC001112477
:10148000E981FA81FC83EB83312C212C9C012E52C3
:101490003F4F388F2F8B4A2D50E05E8B4D8BEF895D
:1014A000F88DE20DF31D44919E828D82D12CC12CCA
:1014B00069817A81620D731D7A8B698B842F90E02C
:1014C0009C8B8B8BE98DFA8DA081B18140FF82C00E
:1014D000F1E0BF126FC0AF126DC01C96ED91FC9190
:1014E0002F813885A4014C0D5D1D69897A89898D0C
:1014F0009A8D0995EB89FC89F595E7954E2F5FEF5D
:10150000C51AD50A6D817E818D899E89680F791FE4
:101510007E836D8398E0C916D10481F6AFEF2A1A55
:101520003A0AEB81FC81E40DF51DFC83EB83F5E0C9
:101530002F16310409F0B3CF2F81388526153705D2
:10154000B9F0A98DBA8DED91FC91B1E0BB1257C0F5
:10155000AB1255C069817A816B5F7F4F0088F1893A
:10156000E02D830128E030E0A401898D9A8D099552
:10157000A98DBA8DED91FC9111970688F789E02D20
:10158000CD016A960FB6F894DEBF0FBECDBFDF91D6
:10159000CF911F910F91FF90EF90DF90CF90BF9070
:1015A000AF909F908F907F906F905F904F903F9003
:1015B0002F9009941E96ED91FC91EF80F884098597
:1015C0001A8592014D815E816B817C81898D9A8D16
:1015D000099590CF2F8138852615370509F48ACFD4
:1015E00031E0B31207C0A31205C01C96ED91FC9127
:1015F000930178CF1E96ED91FC917301E0CF6B853E
:101600007C85641975090684F785E02D73010F85C3
:1016100018899201A401898D9A8D0995A9CFF901A4
:1016200034969491329745915491D91AB7E0DB9E44
:10163000400D511D1124F901259134913C8B2B8BC8
:10164000FA0125903490FA013296749031963491D3
:10165000398B329664903196449041E04C1518F0E5
:101660004A1508F07FC0662D062C000C770B7C8392
:101670006B83842D042C000C990B9E838D83A98D84
:10168000BA8DED91FC9111970284F385E02DCD0187
:101690000995512CD12CC12CEA2DF0E0FA87E9876D
:1016A0002B2D30E03C872B87A401440D511D47FCB6
:1016B0005A95588F4F8B69817A81660D711D67FC31
:1016C0007A957E876D877989C71608F051CF2C2DC2
:1016D00030E04D815E81420F531FA985BA854A9F34
:1016E000C0014B9F900D5A9F900D1124FC01E80DF5
:1016F000F91DF88BEF87852D612C4F89588D420F8E
:10170000531F5E8B4D8B671408F050C044244394E4
:10171000480E877041F4C1010196EB89FC89E20D06
:10172000F31DD4901C01D7FE19C0A98DBA8DED917F
:10173000FC91662D70E0B1E0BB1219C0AB1217C06E
:101740002D853E85620F731F0484F585E02D2F8162
:1017500038854D895E89898D9A8D0995DD0C639454
:10176000842DD1CF1E821D821C821B8288CF4B818B
:101770005C81640F751FAB85BC856A9FC0016B9F40
:10178000900D7A9F900D112469817A81680F791FDD
:101790000684F785E02DEF80F88409851A859D0180
:1017A0004F855889898D9A8D0995D8CF570CC39448
:1017B0008ACF6A960FB6F894DEBF0FBECDBFDF9119
:1017C000CF911F910F91FF90EF90DF90CF90BF903E
:1017D000AF909F908F907F906F905F904F903F90D1
:1017E0002F9008958F929F92AF92CF92EF92FF9297
:1017F0000F931F93CF93DF93EC01262F898D9A8D42
:10180000009709F051C06A30D1F41D861C868D897D
:1018100048E0849F900111248E859F85820F931F3D
:101820009F878E8781E090E0DF91CF911F910F918C
:10183000FF90EF90CF90AF909F908F9008956D3074
:1018400089F3CC88AD888F898823C1F08C859D85EC
:1018500036E0C39E800D911D112448855985481797
:10186000590764F44E855F851D861C8638E0A39E6B
:10187000C0011124840F951F9F878E87EA88FB88FB
:10188000088919894E855F856C857D85CE010E940A
:10189000CD092C898C859D8546E0249F800D911D66
:1018A00011249D878C87BECF6A3069F41D861C8603
:1018B000FC013896E4912D898E859F85E29F800DED
:1018C000911D1124ADCF6D3009F4ACCFFC013496DD
:1018D0003491631708F4A6CF3296E491E61708F422
:1018E000A1CFFC01329685909490462F431B342F54
:1018F00047E0349F800C911C1124F40132963491FE
:101900003196E4913323A9F1EE2399F1CC88F401C7
:101910003596E491AD884F89442301F10E2E000CD9
:10192000FF0BE30FF11DCE9EA001CF9E500D1124A1
:101930006C857D85460F571F688579856417750707
:101940006CF44E855F851D861C86FC013896E491FB
:10195000AE9E400D511D11245F874E87EA88FB889B
:10196000088919894E855F856C857D85CE010E9429
:10197000CD09F4013496E4912C898C859D85E29FF4
:10198000800D911D11248DCF6F927F928F929F9227
:10199000AF92BF92CF92DF92EF92FF920F931F937D
:1019A000CF93DF93EC016B015A0139014801E881C3
:1019B000F9810284F385E02D0995E881F981028897
:1019C000F389E02D87019301A501B601CE010995A8
:1019D000A501480D591D41505109E881F98102883E
:1019E000F389E02D9301B601CE010995E881F981D3
:1019F0000088F189E02D9401A501B601CE01099579
:101A0000C60CD71CB60161507109E881F9810088C4
:101A1000F189E02D9401A501CE010995E881F981B4
:101A20000688F789E02DCE01DF91CF911F910F91AC
:101A3000FF90EF90DF90CF90BF90AF909F908F90EE
:101A40007F906F9009946F927F928F929F92AF9246
:101A5000BF92CF92DF92EF92FF920F931F93CF939B
:101A6000DF935C01EB016A01490138018701DC0168
:101A7000ED91FC916217730719F5641675062CF049
:101A8000962D872D3A01C92ED82E96012619370991
:101A90002F5F3F4F048CF58DE02DA301BE01C501E2
:101AA0000995DF91CF911F910F91FF90EF90DF90FB
:101AB000CF90BF90AF909F908F907F906F90089540
:101AC0004615570591F42617370724F0892D4B0149
:101AD000C22FD82F9E01281939092F5F3F4F068C3E
:101AE000F78DE02DA601B401DACF0284F385E02D55
:101AF0000995D501ED91FC910488F589E02D8301CC
:101B00009401A601BE01C5010995D501ED91FC9195
:101B10000688F789E02DC501DF91CF911F910F91C4
:101B2000FF90EF90DF90CF90BF90AF909F908F90FD
:101B30007F906F900994EF92FF920F931F93DC01B7
:101B40001A960D911C911B9718962D913C911997FF
:101B5000ED91FC9100A0F1A1E02D7B0150E040E06F
:101B600070E060E009951F910F91FF90EF9008954C
:101B70004F925F926F927F928F929F92AF92BF929D
:101B8000CF92DF92EF92FF920F931F93CF93DF9349
:101B90006C012B015A0139014801DC01ED91FC91E6
:101BA0000284F385E02D0995E201640C751CD601D1
:101BB000ED91FC91C615D7055CF40088F189E02D04
:101BC00087019401A501BE01C60109952196EFCFB9
:101BD0000688F789E02DC601DF91CF911F910F9103
:101BE000FF90EF90DF90CF90BF90AF909F908F903D
:101BF0007F906F905F904F9009948F929F92AF92D9
:101C0000BF92CF92DF92EF92FF920F931F93CF93E9
:101C1000DF93EC015B014A016901E881F9810284EB
:101C2000F385E02D099595012C0D3D1D21503109BD
:101C3000E881F9810488F589E02D78018401A40107
:101C4000B501CE010995E881F9810688F789E02D73
:101C5000CE01DF91CF911F910F91FF90EF90DF9018
:101C6000CF90BF90AF909F908F9009948F929F924A
:101C7000AF92BF92CF92DF92EF92FF920F931F939A
:101C8000CF93DF93EC015B014A0169017801E881A0
:101C9000F9810284F385E02D0995C80CD91C8601D1
:101CA00001501109E881F9810488F589E02D950139
:101CB000A401B501CE010995E881F9810688F7896B
:101CC000E02DCE01DF91CF911F910F91FF90EF900A
:101CD000DF90CF90BF90AF909F908F900994EF923C
:101CE000FF920F931F93DC01ED91FC9100A0F1A1F5
:101CF000E02D09951F910F91FF90EF9008950F939C
:101D00001F93DC01ED91FC91068CF78DE02D099578
:101D10001F910F9108950F931F93DC01ED91FC919A
:101D2000048CF58DE02D09951F910F910895DC012C
:101D3000ED91FC910084F185E02D09943F924F9242
:101D40005F926F927F928F929F92AF92BF92CF924B
:101D5000DF92EF92FF920F931F93CF93DF935C017B
:101D60007B014A016901390187E0680E711C93E02B
:101D7000759467949A95E1F72B01400E511E10E07F
:101D800000E0312CD0E0C0E0CE0187709927330C01
:101D9000892B59F4FE0183E0F595E7958A95E1F7E3
:101DA000E00FF11FE80DF91D349037FE0AC021E065
:101DB00030E0A701B5016C0F7D1F85E693E00E941E
:101DC000970E2196CC16DD06F9F68FEFE81AF80A81
:101DD000060D171DE414F504A9F6DF91CF911F91AC
:101DE0000F91FF90EF90DF90CF90BF90AF909F90BA
:101DF0008F907F906F905F904F903F9008952F92BB
:101E00003F924F925F926F927F928F929F92AF928A
:101E1000BF92CF92DF92EF92FF920F931F93CF93D7
:101E2000DF9300D000D000D0CDB7DEB73C016A010F
:101E30003E832D83FC82EB825801A41AB50AB7FEBB
:101E400003C0B194A194B1088D809E80861A970A30
:101E500097FE03C09194819491088A149B045CF0CE
:101E6000902F812F0D811E819D838E839C2D8D2D22
:101E70006B01692F782F0C151D055CF09D818E81FB
:101E80007E836D83692F782F902F812F8601C92E35
:101E9000D82E1601201A310A2B012D813E81421ABB
:101EA000530A57FE03C0519441945108710137FE03
:101EB00003C03FEFE31AF30AF594E7948D819E8106
:101EC000861797075CF5A1E0B0E0BA83A983C01636
:101ED000D1064CF1D301ED91FC910484F585E02D00
:101EE0002B813C81A8016D817E818A149B041CF0AA
:101EF0004D815E81B801C3010995E418F508F7FE2C
:101F00000AC02D813E8189819A81280F391F3E8325
:101F10002D83E20CF31C0F5F1F4FD9CF2FEF3FEF44
:101F20003A832983D4CF26960FB6F894DEBF0FBE2E
:101F3000CDBFDF91CF911F910F91FF90EF90DF9078
:101F4000CF90BF90AF909F908F907F906F905F9059
:101F50004F903F902F900895EF92FF920F931F9311
:101F6000CF93DF93EC01EC80FD806E157F050CF0C4
:101F700070C057FF04C0240F351F50E040E08E8131
:101F80009F81FA01E20FF31F8E179F071CF49C013B
:101F9000241B350B121613060CF05BC0922F842FF6
:101FA0008695869586958E9DD0018F9DB00D1124C6
:101FB0006A0F7B1FAF8DB8A1A60FB71F477049F1FD
:101FC00088E0841B482F682F70E0FB01E653FF4F29
:101FD000E491281708F063C0621B71092FEF30E00D
:101FE00002C0359527956A95E2F7E2230130110585
:101FF00039F0B0F10230110561F58C91E82702C08B
:102000008C91E82BEC93941720F12C813D81A20F49
:10201000B31FE92FE41BE83078F00230110521F5F9
:102020008E2F9C9190959C932C813D81A20FB31F84
:1020300088508830B0F7E770EE2359F0F0E0EE53A7
:10204000FF4FE49101301105F9F010F10230110554
:1020500019F1DF91CF911F910F91FF90EF900895AB
:10206000E0958C91E823CECF81E00115110509F4AC
:1020700080E081959E2F8C932C813D81A20FB31F10
:1020800098509830C0F7D7CF8C91E82BEC93E1CFE4
:10209000E0958C91E823FACF8C91E827F7CF0130B7
:1020A000110509F4ADCFE0F20230110509F4A5CF16
:1020B000AE0DBF1DAECF0F931F93CF93DF9377FF6E
:1020C00004C0260F371F70E060E0DC011496CD914C
:1020D000DC91FB01E20FF31FCE17DF071CF49E011A
:1020E000261B370B121613064CF5FA0157FD3796CF
:1020F000A3E0F595E795AA95E1F7EC9FD001ED9F58
:10210000B00DFC9FB00D11246A0F7B1FDC015F96A0
:10211000ED91FC91E60FF71F4770552781E090E0A5
:1021200001C0880F4A95EAF7482F0130110559F090
:10213000A8F02E0F3F1F02301105E1F0DF91CF9183
:102140001F910F9108952E0F3F1FE217F307B1F370
:102150008191DF011197842B8C93F7CF80952E0FFF
:102160003F1FE217F30751F39191DF011197982375
:102170009C93F7CFE217F30709F38191DF011197E1
:1021800084278C93F7CF0F931F93FA01DC015696A7
:102190004C9156974230E9F04330A1F1413061F55E
:1021A00014964D915C91DA01AE1BBF0BFD01E21B51
:1021B000F30B77FD0BC0DC0116964D915C91641713
:1021C000750724F4AB01BF010E945B101F910F91B2
:1021D000089514964D915C91DA01A61BB70BBD01D1
:1021E00061507109DC0116964D915C91DA01AE1BCC
:1021F000BF0BFD01E21BF30B77FDE8CFAF010E949F
:10220000AC0FE4CF16964D915C91DA01A61BB70B8B
:10221000BD0161507109CDCF0F931F93FA01DC010D
:1022200056964C9156974230A9F0433091F1413087
:1022300019F514964D915C91DA01AE1BBF0BFD01AF
:102240003197F7FD04C0AB01BF010E94AC0F1F9195
:102250000F91089514964D915C91DA01A61BB70B6E
:10226000BD01DC0116964D915C91DA01AE1BBF0BEE
:10227000FD013197621B730BF7FDE9CFDC01169668
:102280004D915C91E417F50714F7AF010E945B10C4
:10229000DECF16964D915C91DA01A61BB70BBD01FE
:1022A000621B730BCECFFC0177FD64C080859185E6
:1022B000681779070CF05EC057FD5CC08285938576
:1022C000481759070CF056C086898230B1F0833028
:1022D00029F1813041F484819581841B950BAB01F8
:1022E000BC01615071092130310509F108F443C086
:1022F0002230310509F463C0089584819581DC01A1
:10230000A61BB70BBD016150710986819781DC0165
:10231000A41BB50BAD0141505109E5CF86819781D2
:10232000861B970BBA01AC0141505109DCCFCA01A1
:1023300057FD0796A3E095958795AA95E1F7A481A7
:10234000B5818A9F90018B9F300D9A9F300D11248B
:10235000620F731F078CF0A1E02DE60FF71F477087
:10236000552721E030E001C0220F4A95EAF780812D
:10237000822B80830895CA0157FD079633E0959517
:1023800087953A95E1F7A481B5818A9F90018B9F4B
:10239000300D9A9F300D1124620F731F078CF0A12E
:1023A000E02DE60FF71F4770552781E090E001C050
:1023B000880F4A95EAF7809590818923DACFCA0180
:1023C00057FD079623E0959587952A95E1F7A48117
:1023D000B5818A9F90018B9F300D9A9F300D1124FB
:1023E000620F731F078CF0A1E02DE60FF71F4770F7
:1023F000552721E030E001C0220F4A95EAF780819D
:102400008227B7CF08958EBD00000DB407FEFDCF23
:102410008EB50895EF92FF920F931F93CF93DF93A2
:102420007C01C62F8091820390918303009709F469
:1024300059C02091860331E03093BB022093BA0249
:102440001092B9021092B802DC01ED91FC9101905A
:10245000F081E02D60E009958701EE24E394F12CF2
:10246000D1E0C1508091820390918303CF3F91F1DD
:10247000B0E2EB16F104D8F00E94D00880918203FC
:102480009091830320918603D093BB022093BA02DC
:102490001092B9021092B802DC01ED91FC9101900A
:1024A000F081E02D60E00995EE24E394F12C809119
:1024B000820390918303F8016491DC01ED91FC911A
:1024C0000190F081E02D0995BFEFEB1AFB0A0F5F39
:1024D0001F4FC7CFDF91CF911F910F91FF90EF90CA
:1024E0000C94D008E0919203F09193039081809135
:1024F00098038095892380838701C15008F438C0F0
:10250000F80184912091800330918103232B29F0DD
:102510000E9403120F5F1F4FF0CF28E030E040E829
:10252000E0918E03F0918F0390919603582F5423DE
:10253000D9F05081952B9083E0919003F091910315
:10254000908150919703952B9083E0919003F091A7
:102550009103508190919703909595239083469590
:1025600021503109E9F6D6CF508190959523E3CFDC
:10257000DF91CF911F910F91FF90EF9008951F93DE
:10258000CF93DF93EC018D8D9E8D009721F1162F57
:1025900029A131E03093BB022093BA021092B90214
:1025A0001092B802DC01ED91FC910190F081E02DD8
:1025B00060E009958D8D9E8DDC01ED91FC9101907F
:1025C000F081E02D612F09958D8D9E8DDF91CF914A
:1025D0001F910C94D008ADA5BEA59C918BA98095A8
:1025E00089238C938B8D9C8D892B31F0862FDF91E5
:1025F000CF911F910C94031228E030E080E8A9A548
:10260000BAA599A9462F4823C1F04C91942B9C93CD
:10261000ABA5BCA59C914AA9942B9C93ABA5BCA54A
:102620004C919AA9909594239C93869521503109B9
:1026300031F7DF91CF911F9108954C91909594239C
:10264000E6CF8CBD9DBD0895DF92EF92FF920F9370
:102650001F93CF93DF938091820390918303892B03
:1026600009F498C020919A0330919B0340919C03F8
:1026700050919D0360E074E284EF90E00E94C321DA
:1026800020513109410951095695479537952795AC
:102690002093B80065E08EED9AE00E940A126091E6
:1026A0006903615085E693E00E94BF1220916B039D
:1026B00030916C03C901079697FD079633E0959515
:1026C00087953A95E1F72091690330916A03829FDB
:1026D0008001839F100D929F100D1124C0918403DF
:1026E000D091850380918203909183030C0F1D1F6D
:1026F000009709F48FC02091860331E03093BB022C
:102700002093BA021092B9021092B802DC01ED9146
:10271000FC910190F081E02D60E40995EE24E394B2
:10272000F12CDD24D39480918203909183030C17C4
:102730001D0709F446C0B0E2EB16F104D8F00E9480
:10274000D008809182039091830320918603D092D8
:10275000BB022093BA021092B9021092B802DC01B7
:10276000ED91FC910190F081E02D60E40995EE245B
:10277000E394F12C80918203909183036991DC01B1
:10278000ED91FC910190F081E02D0995BFEFEB1ADE
:10279000FB0AC9CF8091800390918103892B31F08E
:1027A0008091A3039091A4030E942113E0919403CC
:1027B000F09195039081809199038095892380837E
:1027C00069CF0E94D0088091820390918303892B66
:1027D00009F461C020919E0330919F034091A003B2
:1027E0005091A10360E074E284EF90E00E94C32165
:1027F000205131094109510956954795379527953B
:102800002093B800DF91CF911F910F91FF90EF902F
:10281000DF900895E0919203F0919303808190916D
:102820009803892B80830C171D0769F289912091E9
:10283000800330918103232B19F00E940312F3CF00
:1028400028E030E040E8E0918E03F0918F03909112
:102850009603582F5423D9F05081952B9083E09103
:102860009003F0919103908150919703952B908361
:10287000E0919003F091910350819091970390958E
:1028800095239083469521503109E9F6CCCF5081AC
:1028900090959523E3CFE0919403F0919503808187
:1028A00090919903892B8083ADCF1F93CF93DF93B2
:1028B000EC01162F8D8D9E8D892BB1F12DA93EA98E
:1028C0004FA958AD60E074E284EF90E00E94C3210C
:1028D000205131094109510956954795379527955A
:1028E0002093B80066EA111167EACE010E94BF1278
:1028F0008D8D9E8D892B41F129AD3AAD4BAD5CADEF
:1029000060E074E284EF90E00E94C321205131091D
:102910004109510956954795379527952093B80059
:10292000DF91CF911F9108958B8D9C8D892B21F084
:102930008EAD9FAD0E942113EFA5F8A990818CA9BF
:10294000809589238083CECFEFA5F8A980819CA9AB
:10295000892B8083E5CF089590E080E00895209151
:102960006B0330916C03C901079697FD079623E02E
:10297000959587952A95E1F72091690330916A032F
:10298000829FA001839F500D929F500D112470E0F3
:1029900060E080918403909185030C9415230E943C
:1029A0001023FB0101900020E9F73197AF01461B8E
:1029B000570BDC01ED91FC910280F381E02D09942D
:1029C0008F929F92AF92BF92EF92FF920F931F93BD
:1029D000CF93DF93CDB7DEB7A1970FB6F894DEBFE4
:1029E0000FBECDBF7C01FA01CB0119A2223008F441
:1029F0002AE08E010F5D1F4F822E912CB12CA12C4D
:102A0000BF01A50194010E94C321F901CA016A30E6
:102A10000CF5605DD8016E938D01232B242B252BA3
:102A200079F790E080E0109721F0BD01C7010E9486
:102A3000D114A1960FB6F894DEBF0FBECDBFDF91C3
:102A4000CF911F910F91FF90EF90BF90AF909F900B
:102A50008F900895695CDECFCF92DF92EF92FF9264
:102A6000CF93DF936C01990FEE08FF08F7FE23C0A8
:102A70006DE28CEB92E00E94C905EC0144275527DA
:102A8000BA014C195D096E097F092AE08CEB92E0CE
:102A90000E94E014C80FD91F66E571E08CEB92E04C
:102AA0000E94D1148C0F9D1FDF91CF91FF90EF906A
:102AB000DF90CF9008952AE0B701A6018CEB92E059
:102AC0000E94E014EC01E8CFCF92DF92EF92FF92E8
:102AD0000F931F93CF93DF936B01770FEE08FF08DF
:102AE000F7FE1BC0EC016DE20E94C9058C01442772
:102AF0005527BA014C195D096E097F092AE0CE01FC
:102B00000E94E014800F911FDF91CF911F910F91D0
:102B1000FF90EF90DF90CF9008952AE0B701A601D3
:102B2000DF91CF911F910F91FF90EF90DF90CF90A9
:102B30000C94E0142F923F924F925F926F927F928B
:102B40008F929F92AF92BF92CF92DF92EF92FF92BD
:102B50001F93CF93DF93EC016A017B01722EAB01CF
:102B60009601CB01B6010E94892169E571E08111CE
:102B700026C046015701E894B7F82FEF3FEF4FE723
:102B80005FE7C501B4010E94892181110CC02FEFBC
:102B90003FEF4FE75FE7C501B4010E946F1F6DE58E
:102BA00071E0181664F02FEF3FEF4FE75FE4C701C5
:102BB000B6010E94C7201816B4F461E671E0CE0198
:102BC000DF91CF911F91FF90EF90DF90CF90BF905A
:102BD000AF909F908F907F906F905F904F903F90BD
:102BE0002F900C94D1142FEF3FEF4FE75FECC7010C
:102BF000B6010E946F1F87FDE0CF20E030E0A90101
:102C0000C701B6010E946F1F312C212C87FF09C01C
:102C10006DE2CE010E94C9051C01F7FAF094F7F8A5
:102C2000F09410E060E070E080E09FE3711641F006
:102C300020E030E040E251E40E94741F1F5FF6CFB5
:102C4000A70196010E94031F2B013C010E94E61F71
:102C50004B015C012AE0BC01A401CE010E94E014FA
:102C60007C01E20CF31C1123C1F1C501B4010E94E7
:102C700015209B01AC01C301B2010E94021F4B0150
:102C80005C016EE2CE010E94C905E80EF91E1150EA
:102C900020F120E030E040E251E4C501B4010E949F
:102CA0001C212B013C010E94E61F4B01B12CA12CE1
:102CB0002AE0B501A401CE010E94E014E80EF91E3D
:102CC000C501B4010E9415209B01AC01C301B201F2
:102CD0000E94021F4B015C01DACFC701DF91CF9147
:102CE0001F91FF90EF90DF90CF90BF90AF909F909B
:102CF0008F907F906F905F904F903F902F900895AE
:102D00000F931F93CF93DF93EC010E94D1148C019A
:102D100066E571E0CE010E94D114800F911FDF9112
:102D2000CF911F910F9108950C94D11485ED80934C
:102D3000BC008091210290912202A0912302B091C7
:102D400024020796A11DB11D23E0B695A79597957E
:102D500087952A95D1F72091BC0024FD03C01092DD
:102D60006A0208954091210250912202609123024B
:102D700070912402452B462B472B69F30097A10540
:102D8000B10541F025E32A95F1F700000197A1096B
:102D9000B109E1CF809120020C942A081F920F9272
:102DA0000FB60F9211242F933F934F935F936F931E
:102DB0007F938F939F93AF93BF93EF93FF938CEB8E
:102DC00092E00E944E06FF91EF91BF91AF919F91CB
:102DD0008F917F916F915F914F913F912F910F90C4
:102DE0000FBE0F901F9018951F920F920FB60F9263
:102DF00011242F938F939F93EF93FF93E091CC0235
:102E0000F091CD028081E091D202F091D30282FD57
:102E10001BC090818091D5028F5F8F732091D60265
:102E2000821741F0E091D502F0E0E454FD4F958F18
:102E30008093D502FF91EF919F918F912F910F90E9
:102E40000FBE0F901F9018958081F4CF1F920F92A4
:102E50000FB60F9211242F933F938F939F93AF93AD
:102E6000BF938091A6029091A702A091A802B09171
:102E7000A9023091900223E0230F2D3758F50196D7
:102E8000A11DB11D209390028093A6029093A702EA
:102E9000A093A802B093A90280919102909192020E
:102EA000A0919302B09194020196A11DB11D80934F
:102EB000910290939202A0939302B0939402BF91D7
:102EC000AF919F918F913F912F910F900FBE0F90D7
:102ED0001F90189526E8230F0296A11DB11DD2CF91
:102EE0001F920F920FB60F9211242F933F934F937F
:102EF0005F936F937F938F939F93AF93BF93EF9362
:102F0000FF938091B900887F803609F44AC0F0F5BC
:102F1000883209F4A7C018F5803109F49BC0B8F4D1
:102F2000882309F4F9C0883009F494C0FF91EF9127
:102F3000BF91AF919F918F917F916F915F914F91D1
:102F40003F912F910F900FBE0F901F9018958831D1
:102F500009F488C0803251F78093690214C080342C
:102F600009F49DC040F48033B9F38833F9F68093B7
:102F7000690285ECB0C0803509F485C0883509F454
:102F800096C0883499F60E949616D0CF883909F4F5
:102F90008CC038F5883729F050F4883611F0803726
:102FA00029F683E080936A021092680257C088383D
:102FB00009F47BC0803919F0803809F0B7CF8091CF
:102FC0006802803208F071C0E091680281E08E0FE3
:102FD000809368028091BB00F0E0E85BFD4F808346
:102FE0003DC0803B39F0E0F4803A09F479C0883A7A
:102FF00009F09CCF84E080936A02109247021092FD
:103000004602E0919802F09199020995809146025A
:1030100081110FC081E0809346021092260209C000
:10302000803C09F4A6CF883C09F4A3CF883B09F083
:103030007DCFE091470281E08E0F80934702F0E060
:10304000EA5DFD4F80818093BB00909147028091A3
:10305000460229C080918F028093BB0085EC80934B
:10306000BC0064CF90918E0280918D02981758F524
:10307000E0918E0281E08E0F80938E02F0E0E359A2
:10308000FD4F8081E9CFE0918E0281E08E0F809329
:103090008E028091BB00F0E0E359FD4F8083909158
:1030A0008E0280918D029817C8F285E8D8CFE09102
:1030B0008E0281E08E0F80938E028091BB00F0E043
:1030C000E359FD4F808380916C0281115CCF81E0D8
:1030D00080936B0284EA8093BC0010926A0226CF30
:1030E00085EC8093BC0010926A0280916802803265
:1030F00030F4E0916802F0E0E85BFD4F10826091EF
:10310000680270E0E0919602F091970288E492E004
:103110000995109268020ACF1092690234CFECEB45
:10312000F2E01382128248EE53E060E070E04483E4
:103130005583668377838AE091E09183808385EC71
:1031400090E09587848784EC90E09787868780EC71
:1031500090E0918B808B81EC90E0938B828B82EC62
:1031600090E0958B848B86EC90E0978B868B118E0C
:10317000128E138E148EA9E5B3E013961C921E9244
:10318000129714964D935D936D937C9317978CE1F2
:1031900091E011969C938E93E5E6F3E01382128200
:1031A00020E830E03583248380E490E097838683B1
:1031B0003187208793878287168A1586148617861B
:1031C000168681E0858B848B2FEF3FEF338B228B2C
:1031D000318B208B878B108E128E118E8EE291E0B8
:1031E00091838083148E138EB68FA58F10A2178EB5
:1031F0008FEF84A385A386A387A380A780E89AE1A5
:10320000A6E0B0E085AB96ABA7ABB0AF80EA96E89E
:10321000A1E0B0E081AF92AFA3AFB4AF80E586AFDD
:1032200017AE0895789484B5826084BD84B58160BA
:1032300084BD85B5826085BD85B5816085BD809181
:103240006E00816080936E001092810080918100F9
:1032500082608093810080918100816080938100F1
:10326000809180008160809380008091B1008460B3
:103270008093B1008091B00081608093B000809114
:103280007A00846080937A0080917A0082608093D3
:103290007A0080917A00816080937A0080917A0030
:1032A000806880937A001092C1000E949E058091F0
:1032B000840390918503892B11F10E94AF14209112
:1032C0006B0330916C038091690390916A03213202
:1032D00031050CF06FC3B9016052710977FF02C06C
:1032E0006F5F7F4F759567958357910997FD01969D
:1032F00000E210E023E730E04EE356E06EC3209199
:103300006B0330916C03C901079697FD0796B3E0F4
:1033100095958795BA95E1F72091690330916A03F5
:10332000AC01429FC001439F900D529F900D11240C
:103330000E94EB219093850380938403892B09F0ED
:10334000BCCF0E94AF1481E08093790380937A030D
:1033500081E090E0909378038093770390937603D5
:103360008093750362E082E00E945D0762E083E083
:103370000E945D0762E084E00E945D0761E089E0F1
:103380000E945D0761E08AE00E945D0761E08BE0DA
:103390000E945D0761E08DE00E945D0761E089E0C9
:1033A0000E945D0761E08DE00E945D070E949E051E
:1033B000C1E0D0E088EE882E83E0982EA12CB12CBD
:1033C00000E010E050E450937C0080917A0080642B
:1033D00080937A0080917A0086FDFCCF80917800FE
:1033E00060917900762F682F072E000C880B990BBF
:1033F0000E9417209B01AC0160E070EC8FE794E421
:103400000E94741F20E030E040E85FE30E94021F4A
:1034100020E030E44CE156E40E941C210E94D420BC
:103420006B017C012CE63FEC48E554E30E941C2133
:10343000A70196010E941C21A70196010E941C2150
:103440002B013C0126ED34E649E759E3C701B601FB
:103450000E941C212BEC38E444E85AE30E94031F2D
:103460009B01AC01C301B2010E94031F9B01AC018F
:1034700060E070E080E89FE30E94741F23E333E97B
:1034800048E853E40E94021F6B017C01C092B40221
:10349000D092B502E092B602F092B7021092720397
:1034A00010927103109274031092730310927803B8
:1034B00010927703109276031092750365E671E01F
:1034C00085E693E00E94941640919C0250919D02E3
:1034D00060919E0270919F0222E085E693E00E9437
:1034E0009A15109272031092710310927403109245
:1034F0007303D0937803C0937703D0937603C0937C
:10350000750365E671E085E693E00E94941622E07B
:10351000B701A60185E693E00E949A15C0929C022D
:10352000D0929D02E0929E02F0929F020E9424138C
:103530002090B2023090B302C090AE02D090AF02A1
:10354000E090B002F090B1021092720310927103F9
:103550001092740310927303109278031092770301
:10356000109276031092750368E571E085E693E0AA
:103570000E94801668E571E085E693E00E9480165F
:103580004091A2025091A3026091A4027091A50201
:1035900022E085E693E00E949A156CE671E085E6EC
:1035A00093E00E9494166091A0027091A10285E6BA
:1035B00093E00E94641510927203109271031092AE
:1035C000740310927303D0937803C0937703D0935E
:1035D0007603C093750368E571E085E693E00E9489
:1035E000801668E571E085E693E00E9480166EE63D
:1035F00071E085E693E00E949416C701B60120E8C9
:103600003EEE46E350E00E94C32129013A012AE040
:10361000BA01A20185E693E00E94E0146CE671E035
:1036200085E693E00E948016B10185E693E00E9452
:103630006415C301B2010E9415206093A202709329
:10364000A3028093A4029093A502C701B601A5012D
:1036500094010E94C3213093A1022093A0020E94F2
:10366000241382E00E940607892B09F58091AE029F
:103670009091AF02A091B002B091B102805A9541F1
:10368000AF4FBF4F8093AE029093AF02A093B002B2
:10369000B093B1028091B2029091B30201968C3343
:1036A00091050CF07DC39093B3028093B20283E046
:1036B0000E940607892B19F58091AE029091AF0206
:1036C000A091B002B091B1020097A105B105B9F087
:1036D00080569A4EA109B1098093AE029093AF0231
:1036E000A093B002B093B1028091B2029091B30264
:1036F000019797FD5AC39093B3028093B202C09092
:10370000B402D090B502E090B602F090B70220E08B
:1037100030E0A901C701B6010E94C7201816D4F4F1
:1037200084E00E940607892BA9F48091AE02909153
:10373000AF02A091B002B091B10280369A4EA105BD
:10374000B10540F061E089E00E942F0761E08AE066
:103750000E942F0720E030E04CE552E4C701B6019B
:103760000E94C72060E087FF2EC320E030E04CE5D8
:1037700052E4C701B6010E946F1F87FD19C389E09B
:103780000E940607019779F48AE00E940607892BB8
:1037900051F420E030E04CE552E4C701B6010E944C
:1037A0006F1F87FD0FC384E00E940607892B99F4E1
:1037B0002FB7F8948091A6029091A702A091A80239
:1037C000B091A9022FBF8093AA029093AB02A0935D
:1037D000AC02B093AD022FB7F8948091A6029091FD
:1037E000A702A091A802B091A9022FBF4091AE02FA
:1037F0005091AF026091B0027091B102C090AA02E4
:10380000D090AB02E090AC02F090AD028C199D0913
:10381000AE09BF0984179507A607B707D8F0403649
:103820005A4E61057105B0F060E08AE00E942F07F2
:1038300060E089E00E942F078DE00E940607892B37
:1038400009F4C5C260E08DE00E942F0760E08BE0C4
:103850000E942F0766E771E08CEB92E00E949416BD
:103860002FB7F8946091A6027091A7028091A802E8
:103870009091A9022FBFC090AA02D090AB02E09015
:10388000AC02F090AD026C197D098E099F09A5016B
:1038900094010E94C321BA01A9012AE08CEB92E0B5
:1038A0000E94E01464E871E08CEB92E00E948016C4
:1038B00067E871E08CEB92E00E9494168091B2026E
:1038C0009091B3020E942C1560E971E08CEB92E0BC
:1038D0000E9494166091AE027091AF028091B00286
:1038E0009091B10220E83EEE46E350E00E94C321F1
:1038F000BA01A9012AE08CEB92E00E94E01466E58F
:1039000071E08CEB92E00E94D114C090B402D09090
:10391000B502E090B602F090B70267E971E08CEB77
:1039200092E00E94941622E0B701A6018CEB92E08F
:103930000E949A1565EA71E08CEB92E00E94801675
:1039400068EA71E08CEB92E00E94941667E370E005
:103950008CEB92E00E94641565EA71E08CEB92E0DA
:103960000E9480166DEB71E08CEB92E00E94941641
:1039700089E00E9406070E942C156CEC71E08CEB2C
:1039800092E00E9494168AE00E9406070E942C157D
:1039900068EE73E080E090E00E94B3070115110526
:1039A00009F410CD0E943A06882309F40BCD0E9439
:1039B000000008CDB9016054710977FF02C06F5F44
:1039C0007F4F759567958255910997FD019600E4A3
:1039D00010E022E530E04EE158E0959587950E9491
:1039E0009E0E82E0809387038091820390918303EF
:1039F000892B09F4DFC08CE38093860310929B022D
:103A000010929A021092B9021092B8020E940C0809
:103A100087EC95E0909399028093980288EC95E06A
:103A2000909397028093960280918D0387FD1EC02C
:103A300061E00E945D0761E080918D030E942F0785
:103A400061E070E080E090E00E94B30760E0809168
:103A50008D030E942F076AE070E080E090E00E94F2
:103A6000B30761E080918D030E942F07809182034C
:103A700090918303892B09F45CC120919A033091C2
:103A80009B0340919C0350919D0360E074E284EF9E
:103A900090E00E94C32120513109410951095695F6
:103AA0004795379527952093B80064E088E096E025
:103AB0000E940A1260916B03615085E693E00E94B8
:103AC000BF1264E084E096E00E940A1280918703AE
:103AD00064E1813009F460E185E693E00E94BF1261
:103AE00064E080E096E00E940A128FE88093A203CF
:103AF0008091690390916A038038910509F032C181
:103B000080916B0390916C038034910509F03AC168
:103B100080918703813009F423C18FEC8093A20345
:103B2000C2E16AED85E693E00E94BF126C2F85E644
:103B300093E00E94BF1261E885E693E00E94BF1205
:103B40006091A20385E693E00E94BF1269ED85E6CD
:103B500093E00E94BF128091870361EF813009F4E6
:103B600062E285E693E00E94BF1266E08AEF95E08C
:103B70000E940A128091820390918303892B09F499
:103B800005C120919E0330919F034091A003509165
:103B9000A10360E074E284EF90E00E94C321205111
:103BA0003109410951095695479537952795209335
:103BB000B800C7CB61E080918B030E945D0761E094
:103BC00080918C030E945D0780918B03082E000C6E
:103BD000990BFC01E65DF94FE491F0E0EE0FFF1F59
:103BE000E05EF94F25913491309393032093920333
:103BF000FC01E45FF94FE491E093980380918C031A
:103C0000082E000C990BFC01E65DF94FE491F0E001
:103C1000EE0FFF1FE05EF94FA591B491B0939503AD
:103C2000A0939403FC01E45FF94FE491E0939903BE
:103C30008C91E82BEC938091800390918103892BE8
:103C400009F434C0CFB7F89480919502811127C050
:103C5000E4E3F6E08491E6E1F6E09491E82FF0E009
:103C6000EE0FFF1FE051FA4FA591B491EC91E923BB
:103C700021F461E08AE00E942F0761E08AE00E945F
:103C80005D078CB580618CBD8CB580648CBD61E0B6
:103C90008DE00E945D0761E08BE00E945D078091EE
:103CA00095028F5F80939502CFBFBECE61E0809179
:103CB00089030E945D0761E080918A030E945D078D
:103CC00080918903082E000C990BFC01E65DF94FE9
:103CD000E491F0E0EE0FFF1FE05EF94F2591349183
:103CE00030938F0320938E03FC01E45FF94FE4913E
:103CF000E093960380918A03082E000C990BFC0137
:103D0000E65DF94FE491F0E0EE0FFF1FE05EF94F42
:103D1000A591B491B0939103A0939003FC01E45F4B
:103D2000F94FE491E09397038C91E095E823EC93AD
:103D30007BCE8091800390918103892B31F080911B
:103D4000A3039091A4030E942113E0919403F091A6
:103D50009503908180919903809589238083A5CED6
:103D60008FE9DCCE8036910569F480916B039091E8
:103D70006C03409739F480918703813029F08FEAF2
:103D80008093A203C2E0CDCE80E1FACFE09194030C
:103D9000F0919503808190919903892B8083D1CAFA
:103DA0001092B3021092B20282CC8BE390E0A3CCCB
:103DB00084E00E940607892B09F0E1CC61E089E0EC
:103DC0000E942F0761E08AE00E942F07ECCC8BE075
:103DD0000E940607892B09F035CD61E08DE00E9435
:103DE0002F0761E034CD8EE291E0909366038093DB
:103DF00065038091840390918503009711F00C94E2
:103E0000872208955058BB27AA270E941A1F0C9496
:103E10008D200E947F2038F00E94862020F039F407
:103E20009F3F19F426F40C947C200EF4E095E7FBF8
:103E30000C947620E92F0E949E2058F3BA1762074F
:103E400073078407950720F079F4A6F50C94C02039
:103E50000EF4E0950B2EBA2FA02D0B01B9019001A5
:103E60000C01CA01A0011124FF27591B99F0593FE9
:103E700050F4503E68F11A16F040A22F232F342F31
:103E80004427585FF3CF469537952795A795F0407F
:103E90005395C9F77EF41F16BA0B620B730B840B94
:103EA000BAF09150A1F0FF0FBB1F661F771F881F4C
:103EB000C2F70EC0BA0F621F731F841F48F48795A4
:103EC00077956795B795F7959E3F08F0B0CF939596
:103ED000880F08F09927EE0F9795879508950E940F
:103EE000522008F481E008950E94881F0C948D20D0
:103EF0000E94862058F00E947F2040F029F45F3F06
:103F000029F00C94762051110C94C1200C947C2043
:103F10000E949E2068F39923B1F3552391F3951BDA
:103F2000550BBB27AA2762177307840738F09F5FDA
:103F30005F4F220F331F441FAA1FA9F335D00E2E47
:103F40003AF0E0E832D091505040E695001CCAF7B4
:103F50002BD0FE2F29D0660F771F881FBB1F261777
:103F600037074807AB07B0E809F0BB0B802DBF014E
:103F7000FF2793585F4F3AF09E3F510578F00C941D
:103F800076200C94C1205F3FE4F3983ED4F38695ED
:103F900077956795B795F7959F5FC9F7880F911D3E
:103FA0009695879597F90895E1E0660F771F881F2A
:103FB000BB1F621773078407BA0720F0621B730BDD
:103FC000840BBA0BEE1F88F7E09508950E94A62097
:103FD00088F09F5798F0B92F9927B751B0F0E1F0CA
:103FE000660F771F881F991F1AF0BA95C9F714C07A
:103FF000B13091F00E94C020B1E008950C94C0202F
:10400000672F782F8827B85F39F0B93FCCF38695B2
:1040100077956795B395D9F73EF49095809570950F
:1040200061957F4F8F4F9F4F0895E89409C097FB8C
:104030003EF490958095709561957F4F8F4F9F4F7F
:104040009923A9F0F92F96E9BB279395F6958795C3
:1040500077956795B795F111F8CFFAF4BB0F11F486
:1040600060FF1BC06F5F7F4F8F4F9F4F16C088232D
:1040700011F096E911C0772321F09EE8872F762F63
:1040800005C0662371F096E8862F70E060E02AF0A4
:104090009A95660F771F881FDAF7880F9695879590
:1040A00097F90895990F0008550FAA0BE0E8FEEF65
:1040B00016161706E807F907C0F012161306E407EC
:1040C000F50798F0621B730B840B950B39F40A26E5
:1040D00061F0232B242B252B21F408950A2609F4C3
:1040E000A140A6958FEF811D811D089597F99F67C7
:1040F00080E870E060E008959FEF80EC0895002470
:104100000A941616170618060906089500240A943C
:1041100012161306140605060895092E0394000CC2
:1041200011F4882352F0BB0F40F4BF2B11F460FF51
:1041300004C06F5F7F4F8F4F9F4F089557FD90587A
:10414000440F551F59F05F3F71F04795880F97FB5B
:10415000991F61F09F3F79F0879508951216130615
:104160001406551FF2CF4695F1DF08C01616170644
:104170001806991FF1CF8695710561050894089579
:10418000E894BB2766277727CB0197F908950E940B
:10419000522008F48FEF089516F00C948E210C94A1
:1041A0007C2068940C9476200E94A620A8F3992382
:1041B000C1F3AEF3DF93CF931F930F93FF92C92FF9
:1041C000DD2788232AF02197660F771F881FDAF7EB
:1041D00020E030E040E85FEB9FE3883920F0803E4C
:1041E00038F021968F770E94031FE8E6F0E004C0C4
:1041F0000E94031FE5E9F0E00E949C218B01BE01B3
:10420000EC01FB2E6F5771097595771F880B990B81
:104210000E94172028E132E741E35FE30E942F214B
:10422000AF2D9801AE01FF900F911F91CF91DF91BB
:104230000E941A1F0C948D200E942F210C948D2017
:104240000E947F2038F00E94862020F0952311F0F4
:104250000C9476200C947C2011240C94C1200E9494
:104260009E2070F3959FC1F3950F50E0551F629FFC
:10427000F001729FBB27F00DB11D639FAA27F00DBF
:10428000B11DAA1F649F6627B00DA11D661F829FE6
:104290002227B00DA11D621F739FB00DA11D621FCB
:1042A000839FA00D611D221F749F3327A00D611DE8
:1042B000231F849F600D211D822F762F6A2F1124CA
:1042C0009F5750409AF0F1F088234AF0EE0FFF1FFD
:1042D000BB1F661F771F881F91505040A9F79E3F54
:1042E000510580F00C9476200C94C1205F3FE4F3DC
:1042F000983ED4F3869577956795B795F795E795AA
:104300009F5FC1F7FE2B880F911D9695879597F9B2
:1043100008950E945220880B990B08959F3F31F019
:10432000915020F4879577956795B795880F911DE3
:104330009695879597F90895DF93CF931F930F93E1
:10434000FF92EF92DF927B018C01689406C0DA2E17
:10435000EF010E942F21FE01E894A591259135914E
:1043600045915591A6F3EF010E941A1FFE01970196
:10437000A801DA9469F7DF90EF90FF900F911F91F9
:10438000CF91DF910895A1E21A2EAA1BBB1BFD015C
:104390000DC0AA1FBB1FEE1FFF1FA217B307E40724
:1043A000F50720F0A21BB30BE40BF50B661F771F7C
:1043B000881F991F1A9469F760957095809590955C
:1043C0009B01AC01BD01CF010895EE0FFF1F0590C9
:1043D000F491E02D09940F931F93CF93DF938230D4
:1043E000910510F482E090E0E091A703F091A8031A
:1043F00030E020E0B0E0A0E0309799F421153105DD
:1044000009F44AC0281B390B24303105D8F58A81BC
:104410009B816115710589F1FB0193838283FE0104
:1044200011C0408151810281138148175907E0F082
:104430004817590799F4109761F012960C93129748
:1044400013961C933296CF01DF91CF911F910F915C
:1044500008950093A7031093A803F4CF2115310505
:1044600051F04217530738F0A901DB019A01BD0151
:10447000DF01F801C1CFEF01F9CF9093A80380933A
:10448000A703CDCFFE01E20FF31F8193919322503A
:10449000310939832883D7CF2091A5033091A60312
:1044A000232B41F420910201309103013093A603A4
:1044B0002093A503209100013091010121153105C0
:1044C00041F42DB73EB74091040150910501241BE2
:1044D000350BE091A503F091A603E217F307A0F4D2
:1044E0002E1B3F0B2817390778F0AC014E5F5F4F4A
:1044F0002417350748F04E0F5F1F5093A6034093D3
:10450000A503819391939FCFF0E0E0E09CCFCF9300
:10451000DF930097E9F0FC01329713821282A09199
:10452000A703B091A803ED0130E020E01097A1F4BB
:1045300020813181820F931F2091A5033091A60322
:104540002817390709F061C0F093A603E093A5038B
:10455000DF91CF910895EA01CE17DF07E8F54A8190
:104560005B819E0141155105B1F7E901FB83EA83A7
:1045700049915991C40FD51FEC17FD0761F4808153
:1045800091810296840F951FE90199838883828126
:1045900093819B838A83F0E0E0E012968D919C9159
:1045A00013970097B9F52D913C911197CD01029683
:1045B000820F931F2091A5033091A6032817390776
:1045C00039F6309751F51092A8031092A703B093D3
:1045D000A603A093A503BCCFD383C283408151819E
:1045E000840F951FC817D90761F44E5F5F4F88810C
:1045F0009981480F591F518340838A819B819383FE
:1046000082832115310509F0B0CFF093A803E09320
:10461000A7039ECFFD01DC01C0CF13821282D7CF4A
:1046200081E090E0F8940C941C23DC0101C06D93B0
:1046300041505040E0F7089515E0C3E7D5E004C0CD
:10464000FE010E94E5212196C437D107C9F7F894ED
:02465000FFCF9A
:104652000000A9038000000000007006D005FD05DF
:10466200BD062E060C06200600000000A1087408F4
:10467200AC14C6056D085A084B0800000000F20B86
:10468200D005AC14AB145311C605970E6F0E8B0EEA
:104692007F0EFF0EC605B8095514C3100C11B80DD4
:1046A2009B0D230DC40C0D0A006E616E00696E66CF
:1046B200006F76660054656D703A20003A005469C6
:1046C2006D65723A200054656D706F20617475617A
:1046D2006C3A20002073004D696E75746F3A2000A9
:1046E200486F72613A200054656D7065726174752D
:1046F20072613A200020430054656D7065726174E6
:10470200757261207365746164613A20005374614B
:1047120074757320626F6D62613A20005374617424
:10472200757320617175656365646F723A2000006C
:00000001FF
